:0400D1000208000021
:1000C100438901758CFC758A18D2A9D2AFD28C22D2
:03000B0002009A56
:04009A00C0E0C0D032
:10009E00758CFC758A180509E50970020508B4E827
:0E00AE000DE508B40308750800750900B2A03E
:0500BC00D0D0D0E032BD
:070003001200C1C2A180FC44
:0300000002000EED
:0C000E00787FE4F6D8FD758109020055EA
:10001A00020003E493A3F8E493A34003F68001F2F9
:10002A0008DFF48029E493A3F85407240CC8C333E7
:10003A00C4540F4420C8834004F456800146F6DFB6
:10004A00E4800B01020408102040809000D1E47E75
:10005A00019360BCA3FF543F30E509541FFEE493AB
:10006A00A360010ECF54C025E060A840B8E493A372
:10007A00FAE493A3F8E493A3C8C582C8CAC583CA9D
:10008A00F0A3C8C582C8CAC583CADFE9DEE780BE55
:0100D500002A
:00000001FF
