:1003E800436C6F636B3A0020203A20203A202000AB
:0400030002170005DB
:1002F4007508077509D0E5091509AE0870021508D7
:100304004E6014B2A57F327E001203A6B2A57F967A
:0E0314007E001203A680DFE4F508F509C2A5FD
:0103220022B8
:03000B0002012EC1
:04012E00C0E0C0D09D
:10013200758A18758CFC0512E51270020511B4E877
:100142004AE511B403457511007512000514E51452
:1001520070020513C3943CE5139400402E751300FE
:100162007514000518E51870020517943CE51794FC
:100172000040187517007518000516E5167002057F
:0B01820015641845157004F515F516FE
:05018D00D0D0D0E032EB
:100192001203D41203BD7BFF7A0379E87D017F014C
:1001A2001203477BFF7A0379EF7D017F0212034737
:1001B200750C02AB16AA157D017F02120323750C82
:1001C20002AB18AA177D047F02120323750C02AB3F
:1001D20014AA137D077F02120323E518640545174D
:0F01E20070CEE5146415451370C61202F480C187
:0A03A600EF1FAC0670011E4C600C46
:0C03B00000750A02150AE50A60EC80F8EE
:0103BC00221E
:0603F800C2A58F80D2A710
:0803FE007F027EEFDEFEDFFC52
:0104060022D3
:0A040700C2A61203F8C2A70203FE0A
:10036A00CFCDCFCECCCE12004D7C007D0A12004DEF
:04037A00ED2430FF3F
:0A037E00D2A61203F8C2A70203FE84
:10038800AE07EEFB7A0064017004ED148009EB649B
:0E039800024A7009ED243F4480FF1204072240
:1003D4007F381204077F0C1204077F061204077F7C
:0403E4000102040707
:0A041100AC03120388AF0402037E5F
:060347008B088A09890AF7
:10034D00120388E4FDAB08AA09A90A8D8275830002
:0C035D0012000EFF600612037E0D80E906
:010369002271
:0A02C300EF24FFFDEE34FFFC7F0A7C
:0802CD008E0D8F0E8C0F8D10B9
:1002D5007F017E00E4FBEBC39510E50F6480F874A5
:0E02E5008098500AAC0DAD0E12003B0B80E865
:0102F30022E8
:040323008A0A8B0BAC
:10032700120388AA0CEAFF7E00D39400748094809D
:0F033700400D1202C3AC0AAD0B12036A1A80E626
:010346002294
:04023C008B828A83A4
:10024000120388C3E58364809480400D7F2B1203E2
:100250007E85831E85821F80107F2D12037EC3E45E
:100260009582F51FE49583F51EAA1DEAFF7E00D353
:10027000940074809480400D1202C3AC1EAD1F1216
:05028000036A1A80E68C
:010285002256
:0401F1008A228B23B0
:1001F500120388AA24EAD39400748094804037EAD5
:1002050024FFFDE434FFFC7F107E001202CDAC22FA
:10021500AD23CFCDCFCECCCE12004DEF540FFEC3C4
:10022500940A74809480EE5004243080022437FFB1
:0602350012037E1A80BFD7
:01023B0022A0
:040286008A278B2810
:10028A00120388AA29EAFF7E00D39400748094801E
:10029A004026EF24FFFDEE34FFFC7F021202CDACB4
:1002AA0027AD28CFCDCFCECCCE12004DEF540124AE
:0802BA0030FF12037E1A80CD13
:0102C2002219
:1003BD005389F0438901758A18758CFCC28DD28CD6
:0703CD00D2A9D2AFC2B92290
:030000000200A259
:0C00A200787FE4F6D8FD7581290200E9A2
:10000E00BB010CE58229F582E5833AF583E02250A7
:10001E0006E92582F8E622BBFE06E92582F8E222F1
:0D002E00E58229F582E5833AF583E493220B
:10003B00EF8DF0A4A8F0CF8CF0A428CE8DF0A42ED9
:02004B00FE2293
:10004D00BC000BBE0029EF8DF084FFADF022E4CC97
:10005D00F875F008EF2FFFEE33FEEC33FCEE9DEC60
:10006D00984005FCEE9DFE0FD5F0E9E4CEFD22EDA6
:10007D00F8F5F0EE8420D21CFEADF075F008EF2FF0
:10008D00FFED33FD4007985006D5F0F222C398FDE1
:05009D000FD5F0EA227E
:1000AE00020192E493A3F8E493A34003F68001F2D5
:1000BE0008DFF48029E493A3F85407240CC8C33353
:1000CE00C4540F4420C8834004F456800146F6DF22
:1000DE00E4800B0102040810204080900003E47EAF
:1000EE00019360BCA3FF543F30E509541FFEE49317
:1000FE00A360010ECF54C025E060A840B8E493A3DE
:10010E00FAE493A3F8E493A3C8C582C8CAC583CA08
:10011E00F0A3C8C582C8CAC583CADFE9DEE780BEC0
:0100070000F8
:00000001FF
