:10048F0050617373776F72643A0059455300455248
:02049F00520009
:10018C0012047B7BFF7A04798F7D017F01120407B7
:10019C001200038F1CEF60F8D3940A748094805083
:1001AC0041C3E5199404E51894005028AE1AAF1B0E
:1001BC007C007D0A1202798E1A8F1BE51C75F00AE1
:1001CC0084E5F0251BF51BE4351AF51A0519E5191C
:1001DC0070020518750C04AB1BAA1A7D017F021264
:1001EC0003E3E51C640B7036E51BB4220DE51AB471
:1001FC0005087BFF7A04799980067BFF7A04799D48
:10020C007D0E7F01120407E4F51AF51BF518F5199C
:10021C00750C04AB1BAA1A7D017F021203E3E51CCB
:10022C00640C600302019CF51AF51BF518F51975A1
:10023C000C04AB1BAA1A7D017F021203E302019C82
:10046600EF1FAC0670011E4C600A7D027CEFDCFEBD
:04047600DDFC80EC3D
:01047A00225F
:0604A100C2A58F80D2A766
:0804A7007F027EEFDEFEDFFCA8
:0104AF00222A
:0A04BC00C2A61204A1C2A70204A701
:10042A00CFCDCFCECCCE12028B7C007D0A12028BAE
:04043A00ED2430FF7E
:0A043E00D2A61204A1C2A70204A76F
:10044800AE07EEFB7A0064017004ED148009EB64DA
:0E045800024A7009ED243F4480FF1204BC22CA
:10047B007F381204BC7F0C1204BC7F061204BC7FB5
:04048B00010204BCAA
:0A04C600AC03120448AF0402043E28
:060407008B088A09890A36
:10040D00120448E4FDAB08AA09A90A8D8275830080
:0C041D0012024CFF600612043E0D80E944
:0104290022B0
:0A03B200EF24FFFDEE34FFFC7F0A8C
:0803BC008E0D8F0E8C0F8D10C9
:1003C4007F017E00E4FBEBC39510E50F6480F874B5
:0E03D4008098500AAC0DAD0E1202790B80E835
:0103E20022F8
:0403E3008A0A8B0BEC
:1003E700120448AA0CEAFF7E00D39400748094801C
:0F03F700400D1203B2AC0AAD0B12042A1A80E6B5
:0104060022D3
:04032B008B828A83B4
:10032F00120448C3E58364809480400D7F2B120430
:10033F003E85831685821780107F2D12043EC3E4FD
:10034F009582F517E49583F516AA15EAFF7E00D37B
:10035F00940074809480400D1203B2AC16AD171246
:05036F00042A1A80E6DB
:010374002266
:0402E0008A1F8B20C6
:1002E400120448AA21EAD39400748094804037EA27
:1002F40024FFFDE434FFFC7F107E001203BCAC1F1E
:10030400AD20CFCDCFCECCCE12028BEF540FFEC397
:10031400940A74809480EE5004243080022437FFC1
:0603240012043E1A80BF26
:01032A0022B0
:040375008A248B2526
:10037900120448AA26EAFF7E00D394007480948070
:100389004026EF24FFFDEE34FFFC7F021203BCACD4
:1003990024AD25CFCDCFCECCCE12028BEF54012484
:0803A90030FF12043E1A80CD62
:0103B1002229
:10000300E4F5087590FFC2932097137F14FE120442
:10001300663097FD7F147E001204667508012096F2
:10002300147F147E001204663096FD7F147E001246
:1000330004667508052095147F147E00120466304B
:1000430095FD7F147E001204667508092094147FC1
:10005300147E001204663094FD7F147E0012046641
:1000630075080D7590FFC2922097147F147E0012BD
:1000730004663097FD7F147E001204667508022023
:1000830096147F147E001204663096FD7F147E0062
:100093001204667508062095147F147E0012046608
:1000A3003095FD7F147E0012046675080A209414AF
:1000B3007F147E001204663094FD7F147E001204C8
:1000C3006675080E7590FFC2912097147F147E0009
:1000D3001204663097FD7F147E00120466750803D0
:1000E3002096147F147E001204663096FD7F147EE2
:1000F300001204667508072095147F147E0012040D
:10010300663095FD7F147E0012046675080B2094FB
:10011300147F147E001204663094FD7F147E001257
:10012300046675080F7590FFC2902097147F147EA4
:10013300001204663097FD7F147E00120466750872
:10014300042096147F147E001204663096FD7F14FB
:100153007E001204667508082095147F147E001231
:1001630004663095FD7F147E0012046675080C202A
:1001730094147F147E001204663094FD7F147E0075
:08018300120466750810AF08B4
:01018B002251
:030000000204B047
:0C04B000787FE4F6D8FD75812602018CEF
:10024C00BB010CE58229F582E5833AF583E0225067
:10025C0006E92582F8E622BBFE06E92582F8E222B1
:0D026C00E58229F582E5833AF583E49322CB
:10027900EF8DF0A4A8F0CF8CF0A428CE8DF0A42E99
:02028900FE2253
:10028B00BC000BBE0029EF8DF084FFADF022E4CC57
:10029B00F875F008EF2FFFEE33FEEC33FCEE9DEC20
:1002AB00984005FCEE9DFE0FD5F0E9E4CEFD22ED66
:1002BB00F8F5F0EE8420D21CFEADF075F008EF2FB0
:1002CB00FFED33FD4007985006D5F0F222C398FDA1
:0502DB000FD5F0EA223E
:00000001FF
